:100000000C947500189518951895189518951895CD
:100010001895189518951895189518951895189578
:100020001895189518951895189518951895189568
:100030001895189518951895189518951895189558
:100040001895189518951895189518951895189548
:10005000189518950C9436021895189518951895BA
:10006000189518950C94AD01189518951895189534
:100070001895189518951895189518951895189518
:100080001895189518951895189518951895189508
:1000900018951895189518951895189518951895F8
:1000A00018951895189518951895189518951895E8
:1000B00018951895189518951895189518951895D8
:1000C00018951895189518951895189518951895C8
:1000D00018951895189518951895189518951895B8
:1000E0001895189500008895FECF0FE20DBF02E12C
:1000F0000EBFC0E0D2E10E949407002311F00E94DD
:10010000A6070E9490070E9472000C947200FA9257
:10011000EA92DA92CA92BA92AA929A928A927A92BF
:100120006A925A924A92BA93AA939A938A9308959A
:10013000FF84EE84DD84CC84BB84AA849984888483
:100140007F806E805D804C80BB81AA81998188818F
:10015000F0E0EC0FFD1FEF010895502F212F40E03C
:100160008A0130E0B801622B732B062B172B089500
:100170000E949300E02FF12FA22FB32F80E090E098
:1001800000241124222433241B2F0A2FE6DFC80168
:100190001F2F0E2FE2DF20E030E0312F202F10E064
:1001A00000E0080119018C0120E030E0000D111D74
:1001B000221D331DE4E00C94A4007894089500916E
:1001C0000101086100930101009102010F7E00937B
:1001D000020100910201077F00930201089500913E
:1001E00002010061009302010895009102010F7E57
:1001F000009302010895009102010860009302013A
:10020000089500910201077F00930201089504B14F
:1002100004B92E9A2D9A2C9A089500E00093671243
:100220001E9910C00FEF16E721E00150104020404A
:10023000E1F700C000001E9905C0E7E6F2E1008189
:10024000016000831D9910C00FEF16E721E00150F7
:1002500010402040E1F700C000001D9905C0E7E60E
:10026000F2E10081026000831C9910C00FEF16E7D5
:1002700021E0015010402040E1F700C000001C992F
:1002800005C0E7E6F2E10081046000830895192FBC
:10029000282F80E090E08F3008E0900738F4FC01D0
:1002A000E859FD4E00E000830196F5CF822F912F93
:1002B000089500E00093C50001E00093C4000091A0
:1002C000C00002600093C0000091C1000869009363
:1002D000C1000091C20006600093C200EAE7FAE1A3
:1002E000008101600083D3DF08951091C000212FA9
:1002F00025FFFBCF0093C60008950091C100006860
:100300000093C100EAE7FAE10081016000830895EB
:100310000091C1000F770093C100EAE7FAE1008184
:100320000E7F00830895F80100813196302F00235D
:1003300019F0032FDADFF8CF089500E312E1F3DFBD
:10034000089506E312E1EFDF08950DE312E1EBDF1C
:10035000089507E412E1E7DF0895FA93EA936A93B8
:100360005A934A933A932A931A930A934FB75BB7D7
:100370006CB70091C6002091781A3091791AF90172
:10038000E859FD4E0083E8E7FAE1008111810F5F33
:100390001F4F008311830091781A1091791A003150
:1003A00028E01207B1F400E00093781A00E000930F
:1003B000791AAEDFEAE7FAE100810E7F0083EAE70F
:1003C000FAE1008100610083EAE7FAE10081086058
:1003D000008300E000937D1AEAE7FAE10081026001
:1003E00000836CBF5BBF4FBF09911991299139916F
:1003F000499159916991E991F99118950DE707BDD6
:1004000005B5036005BD00916E00026000936E00AB
:100410000895EAE7FAE1008101FF27C000917D1A03
:10042000039500937D1A00917D1A0230F0F070DF81
:10043000EAE7FAE100810E7F0083EAE7FAE1008152
:100440000D7F0083EAE7FAE1008104600083EAE7B8
:10045000FAE100810860008300E000937D1AE8E77C
:10046000FAE100E0008300E001830895FA93EA9343
:100470004A933A932A931A930A932FB73BB74CB7F0
:10048000C8DFEBE7FAE1008111810F5F1F4F0083A6
:1004900011834CBF3BBF2FBF09911991299139910D
:1004A0004991E991F991189500910001102F11FFE0
:1004B00002C001E0089500E00895002331F4109196
:1004C00001011D7F1093010105C01091010112600F
:1004D0001093010100C000C00895002359F010914D
:1004E00001011E7F10930101109102011E7F1093E4
:1004F00002010AC0109101011160109301011091D5
:1005000002011E7F1093020100C000C00895002365
:1005100059F0109101011D7F10930101109102010A
:100520001D7F109302010AC0109101011260109307
:100530000101109102011D7F1093020100C000C053
:100540000895009101010D7F0093010100910101C7
:100550000E7F00930101009102010D7F00930201C3
:10056000009102010E7F0093020100E000937E1AC9
:10057000089500917E1A002331F401E0AEDF00E01F
:10058000C6DF00E0AADF089500E0C1DF01E0A5DFDB
:1005900001E0BDDF00917E1A002309F0D2DF08954B
:1005A000302F00917E1A0023E1F420E0283070F40F
:1005B00037FB1EF401E0ABDF02C000E0A8DF01E082
:1005C0008CDF00E08ADF330F2395F0CF00E075DF8A
:1005D00001E083DF69DF00937E1A00E07EDF01E047
:1005E0006CDF0895402FC5DF08E7DADF00E0D8DFD1
:1005F000042FD6DFC9DF0895402FBBDF08E7D0DF27
:1006000000E4CEDF042FCCDFBFDF08950EEAEADF7F
:1006100005EDE8DF00E8E6DF08EAE4DF0FE1E2DF0E
:1006200003EDE0DF00E0DEDF00E4DCDF0DE8DADF31
:1006300004E1D8DF00E2D6DF00E0D4DF01EAD2DF58
:1006400008ECD0DF0AEDCEDF02E0CCDF01E8CADF44
:100650000FE8C8DF09EDC6DF01EFC4DF0BEDC2DF35
:1006600000E4C0DF04EABEDF06EABCDF0FEABADF5F
:10067000089501E2B7DF00E0B5DF0FE7B3DF02E284
:10068000B1DF00E0AFDF04E0ADDFE0E0F0E0E0305C
:1006900002E0F00724F400E0AFDF3196F8CF0895D0
:1006A000A80142B9A801452F50E048B9A801B901F5
:1006B000462F572F60E070E040930B01089598019A
:1006C000232F30E020930801202F21BB08950FEF46
:1006D00000930A010FEF07B90FEF01B90FEF0AB945
:1006E00000E00093070100E000BB5B9A00E010E02F
:1006F00020E030E0D5DF00E010E0E1DF0895589819
:1007000059985A9A0895589A599A5A9A08950801E8
:100710001901E0E0F0E080019101C2DF10910601D3
:1007200000E0F8010FB110E09F01202B312BE22BEC
:10073000F32B8F0108950E948700680179014A0117
:100740005B0144245524C3DFDADFC601D7018815D5
:100750009905AA05BB0598F48C019D01D8DF2801F5
:10076000042DC3DD8201012F10E0BFDD08EC000085
:100770000A95E9F78F5F9F4FAF4FBF4FE8CFC3DFB9
:10078000E0E10C9498000FEF00930A010FEF07B916
:100790000FEF01B90FEF0AB90FEF009307010FEF49
:1007A00000BB5B9A0FEF1FEF2FEF3FEF79DF0FEFEB
:1007B0001FEF85DF0895E7DF599A58985A9800EFA0
:1007C00010E07DDF5A9A05E515E020E030E068DFB3
:1007D0005A9800EF10E073DF5A9A589A0895D3DFC1
:1007E00005E515E020E030E05BDF5898599A5A980B
:1007F0000AEA10E064DF589A5A9A0AEA12E020E006
:1008000030E04EDF58985A9805E510E058DF589AC6
:100810005A9A05E515E020E030E042DF58985A98F2
:1008200000E810E04CDF589A5A9A05E515E020E000
:1008300030E036DF58985A980AEA10E040DF589ABC
:100840005A9A0AEA12E020E030E02ADF58985A98D3
:1008500005E510E034DF589A5A9A05E515E020E0E6
:1008600030E01EDF58985A9800E110E028DF5A9ACD
:10087000589A089588DF05E515E020E030E010DFA4
:100880005898599A5A980AEA10E019DF589A5A9AD1
:100890000AEA12E020E030E003DF58985A9805E5B4
:1008A00010E00DDF5A9A05E515E020E030E0F8DEB3
:1008B0005A9800E910E003DF5A9A09DF20DF00E0D0
:1008C00010E020E030E023DF00937F1A01E010E029
:1008D00020E030E01CDF0093801A01E010E020E00F
:1008E00030E015DF012F10E00093811A0EE010E0D8
:1008F00020E030E00CDF0093821A0EE010E020E0F0
:1009000030E005DF012F10E00093831A0FE010E0C4
:1009100020E030E0FCDE0093841A0FE010E020E0DD
:1009200030E0F5DE012F10E00093851AECDE08952B
:1009300008011901FA0127DF589A59985A9A05E5D2
:1009400015E020E030E0ACDE0AEA10E0B8DE5898AE
:10095000599A5A98589A5A9A0AEA12E020E030E0D6
:100960009FDE05E510E0ABDE58985A985A9A05E5E7
:1009700015E020E030E094DE00EA10E0A0DE5A98B6
:100980005A9A800191018CDE8F0199DE5A985A9A09
:100990000895F9DE599A58985A9800E810E08FDEC9
:1009A0005A9A05E515E020E030E07ADE5A9800E139
:1009B00010E085DE5A9A589A08951DDCFCDE87DE29
:1009C00020DCBBDC089517DC55DFF5DE40E0473066
:1009D00040F450E0FA01E158F54E008186DC439581
:1009E000F6CF0FDC0FE412E19EDC089504DCF7DBA8
:1009F000D0DFF5DEAEDC6BDE82DE00E010E020E072
:100A000030E085DE0C3420E0120741F000E010E019
:100A100020E030E07CDE0830104041F40FE31CE9B8
:100A200001501040E9F700C00000E7CF00E010E0FF
:100A300020E030E06CDE0F3F1F4F11F082DC01C080
:100A40007CDC61DEDEDBD1DB08950E9487002D9720
:100A5000280100E00A8300E00B8300E00B8700E040
:100A60000C87A0E0B0E080E090E000E00F8300E0C1
:100A7000088700E0098700E00A876624772400E001
:100A80000D8300E00E8300E0098300E00C8300E0AA
:100A90000883CC24DD24A9DBB4DBF2011581F2014B
:100AA00004815BDB0A831B830A811B81093028E0F8
:100AB000120718F046DC01E02EC1F2013185F20187
:100AC0002085F2011781F201068152DB0F8318871E
:100AD00029873A8720E030E00A811B8120173107FF
:100AE000D0F4F201E20FF31F028510E0A027B12736
:100AF00000E0083068F4A0FB3EF4B695A79511E03D
:100B0000A12710EAB12702C0B695A7950395F1CFAA
:100B10002F5F3F4FE1CF0A811B81F201E00FF11FF0
:100B200013852A813B81F201E20FF31F028515DB59
:100B30000B871C870B851C85A017B10719F005DCF6
:100B400001E0E9C04CDB0A8100FF47C088249924FA
:100B50000A811B818016910678F50881002349F4EB
:100B6000F201E80DF91D02850983088103950883C8
:100B70001EC0F201E80DF91D02850C8319810C815C
:100B8000ECDA3801A3010A010F81188529853A851D
:100B9000A60160E070E0040F151F261F371FA0019B
:100BA000C7DE00E0088301E0C00E00E0D01E01E0D7
:100BB000800E00E0901ECCCF19810FEFCEDA380105
:100BC000A3010F81188529853A85EE24FF240C0D99
:100BD0001D1D2E1D3F1DACDE2AC0882499240A81CC
:100BE0001B81169507958016910608F58401000F64
:100BF000111FF201E00FF11F12859401220F331F24
:100C0000F201E20FF31F0385A8DA3801A3010F8177
:100C1000188529853A85AA24BB24080D191D2A1D8B
:100C20003B1D86DE01E0800E00E0901ED8CFDDDAAD
:100C3000E2DA4DDD64DD00E0098300E00C8300E0D2
:100C40000883CC24DD240F81188529853A855FDD52
:100C50000D831E83882499240A811B8180169106A6
:100C600008F04CC008810023D1F40D811E810F7F54
:100C700010708027912700E0083068F480FB3EF474
:100C80009695879511E0812710EA912702C09695E5
:100C900087950395F1CF0881039508832AC00D81BC
:100CA0001E81012F10E08027912700E0083068F4B2
:100CB00080FB3EF49695879511E0812710EA9127F5
:100CC00002C0969587950395F1CF00E0088301E077
:100CD000C00E00E0D01E860120E030E04F81588534
:100CE00069857A85040F151F261F371F10DD0D83B8
:100CF0001E8301E0800E00E0901EAECF04DD0E9456
:100D000001018A179B0729F002E512E10CDB01E0E3
:100D100002C013DB00E02D96E0E10C9498000E94E5
:100D20008B00D80188249924AA24BB244424552468
:100D300066247724FD013781FD012681FD0115819F
:100D4000FD0104810E94B80048015901FD0133856D
:100D5000FD012285FD011185FD0100850E94B8007D
:100D600028013901EADA0FEF13ED20E301501040BA
:100D70002040E1F700C000000E94FB00A201B30187
:100D800084019501D8DC0E940101ECE00C949C00E8
:100D90000E94910028010E94FB0080E090E0A0E00A
:100DA000B0E0F2013781F2012681F2011581F201F2
:100DB00004810E94B800C801D901AC01BD014F5F98
:100DC0005F4F6F4F7F4F8C019D01B5DC0E94010189
:100DD000E6E00C94A2000E9447010E947D0101E020
:100DE00000937A1A0895BA93AA93D8010C91043209
:100DF00019F0A7DAF0DF71C0FD010181013459F467
:100E0000FD010281053539F4FD010381043519F432
:100E100094DAE1DF62C0FD0101810D3459F4FD0176
:100E20000281023539F4FD010381043519F4CBDD6B
:100E3000D2DF53C0FD010181053459F4FD01028167
:100E4000023539F4FD010381033519F4CFDDC3DF29
:100E500044C0FD010181073561F4FD0102810235C5
:100E600041F4FD010381023421F48D01EEDDB3DF95
:100E700034C0FD010181023561F4FD0102810434B9
:100E800041F4FD010381023521F48D0148DFA3DF28
:100E900024C0FD010181023559F4FD0102810335B1
:100EA00039F4FD010381043519F487DD94DF15C0A1
:100EB000FD010181023561F4FD010281043441F438
:100EC000FD010381013421F48D0162DF84DF05C05F
:100ED0000FE512E10E9493017EDFA991B991089577
:100EE0000E94DD000E94DF000E9407010E94FE01B7
:100EF0000E9459018BDBBDDB089508950E940D010E
:100F0000EAE7FAE1008103FF03C008E612E16BDFC4
:100F1000E7E6F2E1008101FFF1CF68DD5CDFEECFB3
:100F2000DFDFEBDFEBDF089501E0089520E02D9394
:100F300001501040E1F708953BBF26912D93EF5FDC
:100F4000FF4F3F4F01501040B9F7089542EA5FE06C
:100F500060E0FA01362F3BBF07911691FA01EE5F70
:100F6000FF4F3F4F3BBFA791B691FA01362FEC5F81
:100F7000FF4F3F4F3BBF079017902690202D212910
:100F8000222921F0F001322DD7DF01C0CFDF495FE8
:100F90005F4F6F4F1FE020E0403B51076207C8F2F0
:100FA000089537003012B00F001F086712000000CC
:100FB000244F4B0D0A00244552520D0A002443527F
:100FC000434552520D0A0024574149540D0A000D61
:100FD0000A00245752544352434552520D0A0024EA
:070FE0004E4F444154410053
:0000EA0115
:00000001FF
